:100000000C9473000C9492000C9492000C94920047
:100010000C9492000C94B2010C9426020C94920061
:100020000C9492000C9492000C9492000C94920008
:100030000C9492000C9492000C9492000C949200F8
:100040000C9492000C9492000C9492000C949200E8
:100050000C9492000C9492000C9492000C949200D8
:100060000C9492000C9492000C9492000C949200C8
:100070000C9492000C9492000C9492000C949200B8
:100080000C9492000C9492000C94920008000000D2
:10009000BE922449123EABAAAA2ABECDCCCC4C3E7D
:1000A00000000080BEABAAAAAA3E00000000BF006C
:1000B0000000803F0000000000084178D3BB438768
:1000C000D1133D190E3CC3BD4282AD2B3E68EC827C
:1000D00076BED98FE1A93E4C80EFFFBE01C4FF7F01
:1000E0003F000000000011241FBECFEFD0E1DEBFB3
:1000F000CDBF12E0A0E0B1E0E4E9F8E100E00BBF21
:1001000002C007900D92AE30B107D9F712E0AEE011
:10011000B2E001C01D92AC31B107E1F70E94840248
:100120000C94480C0C940000FB012FEF24BB209191
:1001300064002F602093640064E070E00E940E0968
:1001400028E030E002C0359527958A95E2F72093A4
:100150006500E530F10599F1E630F1058CF4E23007
:10016000F10539F1E330F1052CF43097F1F03197D6
:10017000A1F51DC0E330F105F1F0349771F51DC014
:10018000E830F10511F1E930F10534F4E630F1051C
:10019000C1F0379711F517C0EA30F105D1F0EA3018
:1001A000F105ACF03B97C9F416C08FE317C086E0A9
:1001B00015C08BE513C08FE411C086E60FC08DE635
:1001C0000DC08DE70BC087E209C08FE707C08FE63F
:1001D00005C084E503C081E701C080E885BB0895C0
:1001E0006F927F928F929F92AF92BF92CF92DF9247
:1001F000EF92FF920F931F93CF93DF938C0180E0D8
:1002000090E020E034E244EF50E00E94EF0828E65E
:100210003DE14BE150E00E9421096901C80168EE0F
:1002200073E00E940E09CB016AE070E00E940E09A3
:100230003C01C80164E670E00E940E09CB016AE04F
:1002400070E00E940E094C01C8016AE070E00E9453
:100250000E09CB016AE070E00E940E095C01C80142
:100260006AE070E00E940E097C01C5E0D0E000E485
:100270001FE121C080E090E0B3010E949400C8011A
:100280000197F1F781E090E0B4010E949400C80169
:100290000197F1F782E090E0B5010E949400C80157
:1002A0000197F1F783E090E0B7010E949400C80144
:1002B0000197F1F72196CC15DD05E0F2DF91CF91A2
:1002C0001F910F91FF90EF90DF90CF90BF90AF9074
:1002D0009F908F907F906F9008950F931F9381E070
:1002E00090E060E070E00E94940000E41FE1C8012B
:1002F0000197F1F782E090E06BE070E00E949400DB
:10030000C8010197F1F783E090E06BE070E00E9494
:100310009400C8010197F1F71F910F9108950F9371
:100320001F93CF93DF93C0E0D0E000E41FE181E0B2
:1003300090E060E070E00E949400C8010197F1F73E
:1003400082E090E06AE070E00E949400C8010197AA
:10035000F1F72196C431D10551F7DF91CF911F916B
:100360000F9108951F920F920FB60F920BB60F9236
:1003700011242F933F934F935F936F937F938F93AA
:100380009F93AF93BF93EF93FF9380910E02909151
:100390000F02892B11F40E948F0180910E0290911F
:1003A0000F020E94560390930F0280930E02FF915A
:1003B000EF91BF91AF919F918F917F916F915F91DD
:1003C0004F913F912F910F900BBE0F900FBE0F904A
:1003D0001F9018950E94CC039093130280931202F1
:1003E000809112029091130280709F77892F990F4C
:1003F000990B909315028093140208950F931F9305
:100400000E94EA0180911402909115026AE070E066
:100410000E940E0981E090E00E94940000E21EE438
:10042000C8010197F1F780911402909115026AE0DA
:1004300070E00E940E09BC0182E090E00E949400EE
:10044000C8010197F1F71F910F9108951F920F9224
:100450000FB60F920BB60F9211242F933F934F9329
:100460005F936F937F938F939F93AF93BF93CF933C
:10047000DF93EF93FF93C0E0D0E00E94FE0121964E
:10048000CE31D105D1F780910E0290910F020197E4
:1004900019F40E948F0102C00E946D01FF91EF913B
:1004A000DF91CF91BF91AF919F918F917F916F918C
:1004B0005F914F913F912F910F900BBE0F900FBE08
:1004C0000F901F9018950E94C9020E9452038FEF4F
:1004D00084BB8093640083E082BB0E949C0388EE0F
:1004E00093E020E931E0F9013197F1F70197D9F76D
:1004F0000E94A10484EF91E020E931E0F9013197F5
:10050000F1F70197D9F708950E9463028FEC82B941
:100510008AE08ABF80E389BF8FB780688FBF0E945F
:10052000EA0180910E0290910F02019749F58091A6
:1005300014029091150248971CF481E090E00EC0DF
:10054000809114029091150248975CF080911402FA
:10055000909115024E972CF482E090E00E94D80210
:100560000CC080911402909115024E9734F083E0F4
:1005700090E00E94D8020E9413040E948F01CFCF06
:1005800080910E0290910F02892B49F60E946D0115
:10059000C6CF80E287BB82E88FBD8AE18EBD88EB43
:1005A0009BE09BBD8ABD8FE19EE497BD86BD08950B
:1005B0009C0180E287BB2230310519F123303105DF
:1005C00009F43AC02130310509F051C080EA9FE0BA
:1005D0009BBD8ABD80E197E220E931E0F9013197C6
:1005E000F1F70197D9F780E293E09BBD8ABD80E1E6
:1005F00097E220E931E0F9013197F1F70197D9F756
:10060000089580EA9FE09BBD8ABD88E893E120E9D8
:1006100031E0F9013197F1F70197D9F780E293E0E2
:100620009BBD8ABD88E893E120E931E0F90131976B
:10063000F1F70197D9F7089580EA9FE09BBD8ABD45
:100640008CED95E020E931E0F9013197F1F7019760
:10065000D9F780E293E09BBD8ABD8CED95E020E95F
:1006600031E0F9013197F1F70197D9F7089580EA60
:100670009FE09BBD8ABD80E197E220E931E0F9016E
:100680003197F1F70197D9F780E293E09BBD8ABDDE
:1006900080E197E220E931E0F9013197F1F7019724
:1006A000D9F708958FEF8ABB12B808950C9B03C049
:1006B0004FEF5FEF12C0892B19F441E050E003C007
:1006C0001BBA40E050E028EB3BE080E991E0FC0100
:1006D0003197F1F721503040D1F7CA0108958CE0ED
:1006E000809370001092710084E0809374000895EC
:1006F00084EA809374008091740087FFFCCF089592
:100700008093730084E8809374008091740087FF65
:10071000FCCF08958295880F880F807C8468809331
:1007200074008091740087FFFCCF8091730008955E
:1007300084E98093740008958CE080937000109297
:10074000710084E08093740084EA80937400809147
:10075000740087FFFCCF88E98093730084E880935E
:1007600074008091740087FFFCCF81E08093730058
:1007700084E8809374008091740087FFFCCF10920E
:10078000730084E8809374008091740087FFFCCF2D
:1007900084E980937400089584EA809374008091C2
:1007A000740087FFFCCF88E98093730084E880930E
:1007B00074008091740087FFFCCF1092730084E86E
:1007C000809374008091740087FFFCCF84EA80934B
:1007D00074008091740087FFFCCF89E980937300D7
:1007E00084E8809374008091740087FFFCCF84ECD0
:1007F000809374008091740087FFFCCF3091730068
:1008000084E8809374008091740087FFFCCF20916E
:10081000730084E980937400932F80E030E0282BEC
:10082000392BC901089580E187BB88BB80EA9FE02E
:10083000FC013197F1F718BA0197F1F70895CF92BB
:10084000DF92EF92FF920F931F93CF93DF937C0180
:10085000B701882777FD8095982F0E94A1060E94F6
:10086000B60A20E030E040E85FE30E9474060E9490
:10087000FF06DC01CB018C0161E070E00E948E0973
:10088000FC016C01C00ED11EE6010DC0C7016AE07B
:1008900070E00E940E09805D8883C7016AE070E005
:1008A0000E940E097B0101501040219717FFEECFE7
:1008B00083E4D6018C93CF01DF91CF911F910F91EB
:1008C000FF90EF90DF90CF9008951ABAA898A99A58
:1008D000AA9A95E0892F8A95F1F789B3292F2A954D
:1008E000F1F7AA982FEF2ABB9A95F1F70895881F80
:1008F0008827881F0895A898A998AA9A8BBB85E095
:10090000982F9A95F1F7AA988A95F1F708950F9381
:100910001F93182F05E00E94650487FF04C0802FF5
:100920008A95F1F7F8CFA898A998AA9A1BBB85E0F9
:10093000982F9A95F1F7AA988A95F1F71F910F9140
:1009400008950F931F9388EE93E020E931E0F901B9
:100950003197F1F70197D9F788E30E947B0480E48F
:100960009CE90197F1F788E30E947B0400E213E021
:10097000C8010197F1F788E30E947B04C801019741
:10098000F1F788E30E9487048CE00E94870481E0ED
:100990000E9487048FEF8ABB84BB1F910F9108953B
:1009A0000F931F93182F05E00E94650487FF04C072
:1009B000802F8A95F1F7F8CFA89AA998AA9A1BBB1D
:1009C00085E0982F9A95F1F7AA988A95F1F71F91EB
:1009D0000F910895CF93DF93EC0103C021960E94FD
:1009E000D00488818823D1F7DF91CF910895A0E0CA
:1009F000B0E0EDEFF4E00C945709DC012B01FA01B3
:100A00009C91923008F439C1EB018881823008F45E
:100A100033C1943069F4843009F02FC111969C9150
:100A200011978981981709F428C1A0E0B1E025C188
:100A3000843009F421C18230A9F4923009F01DC13B
:100A40009A01AD0188E0EA010990AE01E90109923D
:100A50009E018150C1F7E201898111969C91892301
:100A6000818308C1923009F407C112962D903C9001
:100A70001397EB018A819B811496AD90BD90CD9028
:100A8000DC901797EC80FD800E811F819101281B5F
:100A9000390BB90137FF04C066277727621B730B38
:100AA000603271050CF061C0121613066CF5370147
:100AB0004801062E04C096948794779467940A940C
:100AC000D2F721E030E040E050E004C0220F331FB5
:100AD000441F551F6A95D2F7215030404040504086
:100AE0002E213F2140235123211531054105510578
:100AF00021F021E030E040E050E079018A01E62871
:100B0000F728082919293CC0232BD1F1260E371EBE
:100B100035014601062E04C0969487947794679415
:100B20000A94D2F721E030E040E050E004C0220F08
:100B3000331F441F551F6A95D2F721503040404063
:100B400050402A213B214C215D21211531054105D1
:100B5000510521F021E030E040E050E059016A0108
:100B6000A628B728C828D9280BC0821593052CF0D1
:100B70001C01AA24BB24650103C0EE24FF248701C5
:100B800011969C91D20111968C91981709F445C049
:100B9000992339F0A80197012A193B094C095D09ED
:100BA00006C0A60195012E193F09400B510B57FDB8
:100BB00008C011823382228224833583468357837F
:100BC0001DC081E081833382228288279927DC013E
:100BD000821B930BA40BB50B84839583A683B783E9
:100BE0000DC0220F331F441F551F248335834683B6
:100BF00057838281938101979383828324813581F6
:100C000046815781DA01C9010197A109B1098F5FB6
:100C10009F4FAF4FBF4328F30BC091833382228293
:100C2000EA0CFB1C0C1D1D1DE482F5820683178354
:100C300083E08083248135814681578157FF1AC024
:100C4000C901AA2797FDA095BA2F81709070A07056
:100C5000B0705695479537952795822B932BA42BEB
:100C6000B52B84839583A683B78382819381019674
:100C700093838283DF0101C0D201CD01CDB7DEB7FE
:100C8000E2E10C947309A0E2B0E0E9E4F6E00C9430
:100C9000630969837A838B839C832D833E834F838F
:100CA0005887E9E0EE2EF12CEC0EFD1ECE010196E8
:100CB000B7010E9477088E010F5E1F4FCE01059687
:100CC000B8010E9477088A8991E089278A8BC70139
:100CD000B801AE01475E5F4F0E94F7040E94A20771
:100CE000A096E6E00C947F09A0E2B0E0EAE7F6E027
:100CF0000C94630969837A838B839C832D833E8361
:100D00004F835887F9E0EF2EF12CEC0EFD1ECE013B
:100D10000196B7010E9477088E010F5E1F4FCE012A
:100D20000596B8010E947708C701B801AE01475E79
:100D30005F4F0E94F7040E94A207A096E6E00C9481
:100D40007F09A8E0B0E0E7EAF6E00C9460099B01B7
:100D5000AC0183E08983DA01C9018827B7FD839557
:100D60009927AA27BB27B82E211531054105510522
:100D700019F482E089833AC08823A9F0203080E00A
:100D8000380780E0480780E8580729F460E070E001
:100D900080E09FEC30C0EE24FF248701E21AF30AC2
:100DA000040B150B02C079018A018EE1C82ED12CEB
:100DB000DC82CB82ED82FE820F831887C801B701E7
:100DC0000E94530701971816190684F4082E04C0D0
:100DD000EE0CFF1C001F111F0A94D2F7ED82FE8259
:100DE0000F831887C81AD90ADC82CB82BA82CE0157
:100DF00001960E94A2072896E9E00C947C09ACE0D9
:100E0000B0E0E5E0F7E00C94670969837A838B83AF
:100E10009C83CE010196BE016B5F7F4F0E947708D5
:100E20008D81823061F1823050F1843021F48E81E5
:100E3000882351F12EC02F81388537FD20C06E8167
:100E40002F3131051CF06623F9F023C08EE190E0CC
:100E5000821B930B29853A854B855C8504C056958A
:100E60004795379527958A95D2F76623B1F0509527
:100E70004095309521953F4F4F4F5F4F0EC020E07A
:100E800030E040E050E009C02FEF3FEF4FEF5FE769
:100E900004C020E030E040E050E8B901CA012C96DF
:100EA000E2E00C948309EF92FF920F931F937B0172
:100EB0008C0180E0E81680E0F80681E0080780E019
:100EC000180788F48FEFE816F1040105110531F0D9
:100ED00028F088E090E0A0E0B0E017C080E090E06B
:100EE000A0E0B0E012C080E0E81680E0F80680E004
:100EF000080781E0180728F088E190E0A0E0B0E062
:100F000004C080E190E0A0E0B0E020E230E040E00A
:100F100050E0281B390B4A0B5B0B04C01695079554
:100F2000F794E7948A95D2F7F701E85FFE4F808146
:100F3000281B310941095109C9011F910F91FF90E7
:100F4000EF900895DF92EF92FF920F931F93FC01B1
:100F5000E480F58006811781D1808081823048F459
:100F600080E090E0A0E1B0E0E82AF92A0A2B1B2BF0
:100F7000A5C0843009F49FC0823021F4EE24FF2400
:100F8000870105C0E114F1040105110519F4E0E041
:100F9000F0E096C0628173819FEF623879070CF0B0
:100FA0005BC022E83FEF261B370B2A3131052CF0BE
:100FB00020E030E040E050E02AC0B801A701022E56
:100FC00004C076956795579547950A94D2F781E0C6
:100FD00090E0A0E0B0E004C0880F991FAA1FBB1FDB
:100FE0002A95D2F70197A109B1098E219F21A0234B
:100FF000B1230097A105B10521F081E090E0A0E0C8
:10100000B0E09A01AB01282B392B4A2B5B2BDA017C
:10101000C9018F779070A070B07080349105A105E0
:10102000B10539F427FF09C0205C3F4F4F4F5F4F98
:1010300004C0215C3F4F4F4F5F4FE0E0F0E02030B5
:10104000A0E03A07A0E04A07A0E45A0710F0E1E068
:10105000F0E079018A0127C06038710564F5FB0171
:10106000E158FF4FD801C7018F779070A070B07022
:1010700080349105A105B10539F4E7FE0DC080E487
:1010800090E0A0E0B0E004C08FE390E0A0E0B0E02A
:10109000E80EF91E0A1F1B1F17FF05C016950795BE
:1010A000F794E794319687E016950795F794E794BF
:1010B0008A95D1F705C0EE24FF248701EFEFF0E019
:1010C0006E2F679566276795902F9F77D794DD24BD
:1010D000D7948E2F8695492F462B582F5D29B7011F
:1010E000CA011F910F91FF90EF90DF900895FC01CE
:1010F000DB01408151812281622F6F7770E0221FD6
:101100002227221F9381892F880F822B282F30E0DE
:10111000991F9927991F11969C93119721153105B5
:10112000A9F5411551056105710511F482E037C03B
:1011300082E89FEF13969C938E9312979A01AB01CE
:1011400067E0220F331F441F551F6A95D1F783E0D4
:101150008C930DC0220F331F441F551F12968D9183
:101160009C911397019713969C938E93129720301E
:1011700080E0380780E0480780E4580758F3149669
:101180002D933D934D935C93179708952F3F310511
:1011900079F4411551056105710519F484E08C93CA
:1011A000089564FF03C081E08C9312C01C9210C0AC
:1011B0002F57304013963C932E93129783E08C93D5
:1011C00087E0440F551F661F771F8A95D1F770641B
:1011D00014964D935D936D937C9317970895629F3A
:1011E000D001739FF001829FE00DF11D649FE00D1F
:1011F000F11D929FF00D839FF00D749FF00D659F80
:10120000F00D9927729FB00DE11DF91F639FB00D7E
:10121000E11DF91FBD01CF011124089597FB092E8F
:1012200007260AD077FD04D02ED006D000201AF46D
:10123000709561957F4F0895F6F7909581959F4F32
:101240000895A1E21A2EAA1BBB1BFD010DC0AA1F07
:10125000BB1FEE1FFF1FA217B307E407F50720F01F
:10126000A21BB30BE40BF50B661F771F881F991F9A
:101270001A9469F760957095809590959B01AC01E3
:10128000BD01CF010895AA1BBB1B51E107C0AA1FD6
:10129000BB1FA617B70710F0A61BB70B881F991F17
:1012A0005A95A9F780959095BC01CD0108952F928C
:1012B0003F924F925F926F927F928F929F92AF92E6
:1012C000BF92CF92DF92EF92FF920F931F93CF9333
:1012D000DF93CDB7DEB7CA1BDB0B0FB6F894DEBFCA
:1012E0000FBECDBF09942A88398848885F846E84F0
:1012F0007D848C849B84AA84B984C884DF80EE803A
:10130000FD800C811B81AA81B981CE0FD11D0FB642
:10131000F894DEBF0FBECDBFED0108950F931F936C
:10132000CF93DF93689F8001699F100D789F100D08
:101330001124C8010E94AA09EC01009729F060E07D
:1013400070E0A8010E94AF0ACE01DF91CF911F91FA
:101350000F910895CF93DF93BC018230910510F473
:1013600062E070E0A0911A02B0911B02ED01E0E092
:10137000F0E040E050E021C088819981861797070E
:1013800069F48A819B81309719F09383828304C02A
:1013900090931B0280931A02FE0134C068177907EC
:1013A00038F44115510519F08417950708F4AC017C
:1013B000FE018A819B819C01E9012097E9F6411594
:1013C0005105A9F1CA01861B970B049708F4BA01CD
:1013D000E0E0F0E02AC08D919C9111978417950769
:1013E000F9F46417750781F412968D919C91139707
:1013F000309719F09383828304C090931B028093EB
:101400001A02FD0132964FC0CA01861B970BFD01DF
:10141000E80FF91F6193719302978D939C9343C0DA
:10142000FD01828193819C01D9011097A1F68091E1
:10143000180290911902892B41F480910A0290912F
:101440000B02909319028093180240910C02509164
:101450000D024115510541F44DB75EB78091080268
:1014600090910902481B590B2091180230911902E2
:1014700024173507B0F4CA01821B930B8617970710
:1014800080F0AB014E5F5F4F8417950750F0420F1D
:10149000531F5093190240931802F90161937193FD
:1014A00002C0E0E0F0E0CF01DF91CF910895CF934B
:1014B000DF93009709F450C0EC0122971B821A8237
:1014C000A0911A02B0911B02109709F140E050E080
:1014D000AC17BD0708F1BB83AA83FE0121913191AE
:1014E000E20FF31FAE17BF0779F48D919C9111970E
:1014F000280F391F2E5F3F4F3983288312968D9115
:101500009C9113979B838A834115510571F4D09365
:101510001B02C0931A0220C012968D919C911397C2
:10152000AD01009711F0DC01D3CFFA01D383C28360
:1015300021913191E20FF31FCE17DF0769F4888103
:101540009981280F391F2E5F3F4FFA013183208385
:101550008A819B8193838283DF91CF910895DC01FF
:1015600001C06D9341505040E0F708950AD029ED35
:101570003BE54EED5EE345C00EF00CC119C1689429
:1015800003C165D1C8F39923D1F3C6F3DF93CF9399
:101590001F930F93FF92C92FDD2788232AF02197ED
:1015A000660F771F881FDAF720E030E040E85FEB36
:1015B0009FE3883920F0803E30F021968F7794DBCE
:1015C000ECE8F0E003C090DBE9EBF0E0F4D08B0155
:1015D000BE01EC01FB2E6F5771097595771F880BC3
:1015E000990BAFDB28E132E741E35FE316D0AF2D83
:1015F0009801AE01FF900F911F91CF91DF9171D0B3
:101600000DC10BD00BC1FCD028F001D118F09523EF
:1016100009F0BAC0CDC0112435C111D1A0F3959FF6
:10162000D1F3950F50E0551F629FF001729FBB27C9
:10163000F00DB11D639FAA27F00DB11DAA1F649F75
:101640006627B00DA11D661F829F2227B00DA11D28
:10165000621F739FB00DA11D621F839FA00D611DAE
:10166000221F749F3327A00D611D231F849F600DCF
:10167000211D822F762F6A2F11249F5750408AF008
:10168000E1F088234AF0EE0FFF1FBB1F661F771F94
:10169000881F91505040A9F79E3F510570F074C0CB
:1016A000F1C05F3FECF3983EDCF386957795679544
:1016B000B795F795E7959F5FC1F7FE2B880F911DB2
:1016C0009695879597F908959BD030F0A0D020F09B
:1016D00031F49F3F11F41EF46BC00EF4E095E7FB6C
:1016E00053C0E92FACD080F3BA17620773078407A1
:1016F000950718F071F49EF5C4C00EF4E0950B2E1A
:10170000BA2FA02D0B01B90190010C01CA01A00153
:101710001124FF27591B99F0593F50F4503E68F1AE
:101720001A16F040A22F232F342F4427585FF3CFEF
:10173000469537952795A795F0405395C9F77EF4C0
:101740001F16BA0B620B730B840BBAF09150A1F009
:10175000FF0FBB1F661F771F881FC2F70EC0BA0F8F
:10176000621F731F841F48F4879577956795B79517
:10177000F7959E3F08F0B3CF9395880F08F099270F
:10178000EE0F97958795089597F99F6780E870E029
:1017900060E008959F3F31F0915020F48795779550
:1017A0006795B795880F911D9695879597F9089538
:1017B0009FEF80EC0895DF93CF931F930F93FF92D9
:1017C000EF92DF927B018C01689405C0DA2EEF0165
:1017D00024DFFE01E894A59125913591459155911D
:1017E000AEF3EF017EDFFE019701A801DA9479F7ED
:1017F000DF90EF90FF900F911F91CF91DF910895AF
:1018000000240A94161617061806090608950024DF
:101810000A9412161306140605060895092E039459
:10182000000C11F4882352F0BB0F40F4BF2B11F4CD
:1018300060FF04C06F5F7F4F8F4F9F4F089557FD2C
:101840009058440F551F59F05F3F71F04795880F2E
:1018500097FB991F61F09F3F79F0879508951216C5
:1018600013061406551FF2CF4695F1DF08C0161671
:1018700017061806991FF1CF869571056105089422
:101880000895E894BB2766277727CB0197F9089539
:04189000F894FFCFFA
:101894000000000000000000000102020303030333
:1018A40004040404040404040505050505050505EC
:1018B40005050505050505050606060606060606CC
:1018C40006060606060606060606060606060606B4
:1018D400060606060606060607070707070707079C
:1018E4000707070707070707070707070707070784
:1018F4000707070707070707070707070707070774
:101904000707070707070707070707070707070763
:10191400070707070707070708080808080808084B
:101924000808080808080808080808080808080833
:101934000808080808080808080808080808080823
:101944000808080808080808080808080808080813
:101954000808080808080808080808080808080803
:1019640008080808080808080808080808080808F3
:1019740008080808080808080808080808080808E3
:1019840008080808080808080808080808080808D3
:0E199400080808080808080820001C020000C7
:00000001FF
